{
  "_format": "hh-sol-artifact-1",
  "contractName": "PriceFeeder",
  "sourceName": "contracts/PriceFeeder.sol",
  "abi": [
    {
      "inputs": [
        {
          "internalType": "uint256",
          "name": "_xauUsd",
          "type": "uint256"
        },
        {
          "internalType": "uint256",
          "name": "_usdVnd",
          "type": "uint256"
        }
      ],
      "stateMutability": "nonpayable",
      "type": "constructor"
    },
    {
      "anonymous": false,
      "inputs": [
        {
          "indexed": true,
          "internalType": "address",
          "name": "previousOwner",
          "type": "address"
        },
        {
          "indexed": true,
          "internalType": "address",
          "name": "newOwner",
          "type": "address"
        }
      ],
      "name": "OwnershipTransferred",
      "type": "event"
    },
    {
      "anonymous": false,
      "inputs": [
        {
          "indexed": false,
          "internalType": "uint256",
          "name": "xauUsd",
          "type": "uint256"
        },
        {
          "indexed": false,
          "internalType": "uint256",
          "name": "usdVnd",
          "type": "uint256"
        },
        {
          "indexed": false,
          "internalType": "uint256",
          "name": "timestamp",
          "type": "uint256"
        }
      ],
      "name": "PriceUpdated",
      "type": "event"
    },
    {
      "inputs": [],
      "name": "getChiUsd",
      "outputs": [
        {
          "internalType": "uint256",
          "name": "",
          "type": "uint256"
        }
      ],
      "stateMutability": "view",
      "type": "function"
    },
    {
      "inputs": [],
      "name": "getChiVnd",
      "outputs": [
        {
          "internalType": "uint256",
          "name": "",
          "type": "uint256"
        }
      ],
      "stateMutability": "view",
      "type": "function"
    },
    {
      "inputs": [],
      "name": "lastUpdated",
      "outputs": [
        {
          "internalType": "uint256",
          "name": "",
          "type": "uint256"
        }
      ],
      "stateMutability": "view",
      "type": "function"
    },
    {
      "inputs": [],
      "name": "owner",
      "outputs": [
        {
          "internalType": "address",
          "name": "",
          "type": "address"
        }
      ],
      "stateMutability": "view",
      "type": "function"
    },
    {
      "inputs": [],
      "name": "renounceOwnership",
      "outputs": [],
      "stateMutability": "nonpayable",
      "type": "function"
    },
    {
      "inputs": [
        {
          "internalType": "address",
          "name": "newOwner",
          "type": "address"
        }
      ],
      "name": "transferOwnership",
      "outputs": [],
      "stateMutability": "nonpayable",
      "type": "function"
    },
    {
      "inputs": [
        {
          "internalType": "uint256",
          "name": "_xauUsd",
          "type": "uint256"
        },
        {
          "internalType": "uint256",
          "name": "_usdVnd",
          "type": "uint256"
        }
      ],
      "name": "updatePrice",
      "outputs": [],
      "stateMutability": "nonpayable",
      "type": "function"
    },
    {
      "inputs": [],
      "name": "usdVnd",
      "outputs": [
        {
          "internalType": "uint256",
          "name": "",
          "type": "uint256"
        }
      ],
      "stateMutability": "view",
      "type": "function"
    },
    {
      "inputs": [],
      "name": "xauUsd",
      "outputs": [
        {
          "internalType": "uint256",
          "name": "",
          "type": "uint256"
        }
      ],
      "stateMutability": "view",
      "type": "function"
    }
  ],
  "bytecode": "0x60806040523480156200001157600080fd5b5060405162000bff38038062000bff833981810160405281019062000037919062000210565b620000576200004b6200010460201b60201c565b6200010c60201b60201c565b600082118015620000685750600081115b620000aa576040517f08c379a0000000000000000000000000000000000000000000000000000000008152600401620000a190620002b8565b60405180910390fd5b8160018190555080600281905550426003819055507f15819dd2fd9f6418b142e798d08a18d0bf06ea368f4480b7b0d3f75bd966bc48828242604051620000f493929190620002eb565b60405180910390a1505062000328565b600033905090565b60008060009054906101000a900473ffffffffffffffffffffffffffffffffffffffff169050816000806101000a81548173ffffffffffffffffffffffffffffffffffffffff021916908373ffffffffffffffffffffffffffffffffffffffff1602179055508173ffffffffffffffffffffffffffffffffffffffff168173ffffffffffffffffffffffffffffffffffffffff167f8be0079c531659141344cd1fd0a4f28419497f9722a3daafe3b4186f6b6457e060405160405180910390a35050565b600080fd5b6000819050919050565b620001ea81620001d5565b8114620001f657600080fd5b50565b6000815190506200020a81620001df565b92915050565b600080604083850312156200022a5762000229620001d0565b5b60006200023a85828601620001f9565b92505060206200024d85828601620001f9565b9150509250929050565b600082825260208201905092915050565b7f496e76616c696420707269636500000000000000000000000000000000000000600082015250565b6000620002a0600d8362000257565b9150620002ad8262000268565b602082019050919050565b60006020820190508181036000830152620002d38162000291565b9050919050565b620002e581620001d5565b82525050565b6000606082019050620003026000830186620002da565b620003116020830185620002da565b620003206040830184620002da565b949350505050565b6108c780620003386000396000f3fe608060405234801561001057600080fd5b50600436106100935760003560e01c80638da5cb5b116100665780638da5cb5b146100fa578063a889253e14610118578063d0b06f5d14610136578063e925ac6c14610154578063f2fde38b1461017257610093565b806346f1e9d6146100985780634b0f2b4f146100b6578063715018a6146100d457806382367b2d146100de575b600080fd5b6100a061018e565b6040516100ad91906104cd565b60405180910390f35b6100be6101be565b6040516100cb91906104cd565b60405180910390f35b6100dc6101c4565b005b6100f860048036038101906100f39190610519565b6101d8565b005b610102610283565b60405161010f919061059a565b60405180910390f35b6101206102ac565b60405161012d91906104cd565b60405180910390f35b61013e6102db565b60405161014b91906104cd565b60405180910390f35b61015c6102e1565b60405161016991906104cd565b60405180910390f35b61018c600480360381019061018791906105e1565b6102e7565b005b6000670de0b6b3a76400006701ac553a8d5850006001546101af919061063d565b6101b991906106ae565b905090565b60025481565b6101cc61036a565b6101d660006103e8565b565b6101e061036a565b6000821180156101f05750600081115b61022f576040517f08c379a00000000000000000000000000000000000000000000000000000000081526004016102269061073c565b60405180910390fd5b8160018190555080600281905550426003819055507f15819dd2fd9f6418b142e798d08a18d0bf06ea368f4480b7b0d3f75bd966bc488282426040516102779392919061075c565b60405180910390a15050565b60008060009054906101000a900473ffffffffffffffffffffffffffffffffffffffff16905090565b6000670de0b6b3a76400006002546102c261018e565b6102cc919061063d565b6102d691906106ae565b905090565b60035481565b60015481565b6102ef61036a565b600073ffffffffffffffffffffffffffffffffffffffff168173ffffffffffffffffffffffffffffffffffffffff160361035e576040517f08c379a000000000000000000000000000000000000000000000000000000000815260040161035590610805565b60405180910390fd5b610367816103e8565b50565b6103726104ac565b73ffffffffffffffffffffffffffffffffffffffff16610390610283565b73ffffffffffffffffffffffffffffffffffffffff16146103e6576040517f08c379a00000000000000000000000000000000000000000000000000000000081526004016103dd90610871565b60405180910390fd5b565b60008060009054906101000a900473ffffffffffffffffffffffffffffffffffffffff169050816000806101000a81548173ffffffffffffffffffffffffffffffffffffffff021916908373ffffffffffffffffffffffffffffffffffffffff1602179055508173ffffffffffffffffffffffffffffffffffffffff168173ffffffffffffffffffffffffffffffffffffffff167f8be0079c531659141344cd1fd0a4f28419497f9722a3daafe3b4186f6b6457e060405160405180910390a35050565b600033905090565b6000819050919050565b6104c7816104b4565b82525050565b60006020820190506104e260008301846104be565b92915050565b600080fd5b6104f6816104b4565b811461050157600080fd5b50565b600081359050610513816104ed565b92915050565b600080604083850312156105305761052f6104e8565b5b600061053e85828601610504565b925050602061054f85828601610504565b9150509250929050565b600073ffffffffffffffffffffffffffffffffffffffff82169050919050565b600061058482610559565b9050919050565b61059481610579565b82525050565b60006020820190506105af600083018461058b565b92915050565b6105be81610579565b81146105c957600080fd5b50565b6000813590506105db816105b5565b92915050565b6000602082840312156105f7576105f66104e8565b5b6000610605848285016105cc565b91505092915050565b7f4e487b7100000000000000000000000000000000000000000000000000000000600052601160045260246000fd5b6000610648826104b4565b9150610653836104b4565b9250828202610661816104b4565b915082820484148315176106785761067761060e565b5b5092915050565b7f4e487b7100000000000000000000000000000000000000000000000000000000600052601260045260246000fd5b60006106b9826104b4565b91506106c4836104b4565b9250826106d4576106d361067f565b5b828204905092915050565b600082825260208201905092915050565b7f496e76616c696420707269636500000000000000000000000000000000000000600082015250565b6000610726600d836106df565b9150610731826106f0565b602082019050919050565b6000602082019050818103600083015261075581610719565b9050919050565b600060608201905061077160008301866104be565b61077e60208301856104be565b61078b60408301846104be565b949350505050565b7f4f776e61626c653a206e6577206f776e657220697320746865207a65726f206160008201527f6464726573730000000000000000000000000000000000000000000000000000602082015250565b60006107ef6026836106df565b91506107fa82610793565b604082019050919050565b6000602082019050818103600083015261081e816107e2565b9050919050565b7f4f776e61626c653a2063616c6c6572206973206e6f7420746865206f776e6572600082015250565b600061085b6020836106df565b915061086682610825565b602082019050919050565b6000602082019050818103600083015261088a8161084e565b905091905056fea26469706673582212207eb149df7a414d13e481e4747c9f1e079d3e8ca30697148a4ff38871e71abf8664736f6c63430008140033",
  "linkReferences": {},
  "deployedLinkReferences": {}
}