{
  "_format": "hh-sol-artifact-1",
  "contractName": "SoulboundKYC",
  "sourceName": "contracts/KycSBT.sol",
  "abi": [
    {
      "inputs": [],
      "stateMutability": "nonpayable",
      "type": "constructor"
    },
    {
      "anonymous": false,
      "inputs": [
        {
          "indexed": true,
          "internalType": "address",
          "name": "owner",
          "type": "address"
        },
        {
          "indexed": true,
          "internalType": "address",
          "name": "approved",
          "type": "address"
        },
        {
          "indexed": true,
          "internalType": "uint256",
          "name": "tokenId",
          "type": "uint256"
        }
      ],
      "name": "Approval",
      "type": "event"
    },
    {
      "anonymous": false,
      "inputs": [
        {
          "indexed": true,
          "internalType": "address",
          "name": "owner",
          "type": "address"
        },
        {
          "indexed": true,
          "internalType": "address",
          "name": "operator",
          "type": "address"
        },
        {
          "indexed": false,
          "internalType": "bool",
          "name": "approved",
          "type": "bool"
        }
      ],
      "name": "ApprovalForAll",
      "type": "event"
    },
    {
      "anonymous": false,
      "inputs": [
        {
          "indexed": false,
          "internalType": "uint256",
          "name": "_fromTokenId",
          "type": "uint256"
        },
        {
          "indexed": false,
          "internalType": "uint256",
          "name": "_toTokenId",
          "type": "uint256"
        }
      ],
      "name": "BatchMetadataUpdate",
      "type": "event"
    },
    {
      "anonymous": false,
      "inputs": [
        {
          "indexed": false,
          "internalType": "uint256",
          "name": "_tokenId",
          "type": "uint256"
        }
      ],
      "name": "MetadataUpdate",
      "type": "event"
    },
    {
      "anonymous": false,
      "inputs": [
        {
          "indexed": true,
          "internalType": "address",
          "name": "previousOwner",
          "type": "address"
        },
        {
          "indexed": true,
          "internalType": "address",
          "name": "newOwner",
          "type": "address"
        }
      ],
      "name": "OwnershipTransferred",
      "type": "event"
    },
    {
      "anonymous": false,
      "inputs": [
        {
          "indexed": true,
          "internalType": "address",
          "name": "from",
          "type": "address"
        },
        {
          "indexed": true,
          "internalType": "address",
          "name": "to",
          "type": "address"
        },
        {
          "indexed": true,
          "internalType": "uint256",
          "name": "tokenId",
          "type": "uint256"
        }
      ],
      "name": "Transfer",
      "type": "event"
    },
    {
      "inputs": [
        {
          "internalType": "address",
          "name": "to",
          "type": "address"
        },
        {
          "internalType": "uint256",
          "name": "tokenId",
          "type": "uint256"
        }
      ],
      "name": "approve",
      "outputs": [],
      "stateMutability": "nonpayable",
      "type": "function"
    },
    {
      "inputs": [
        {
          "internalType": "address",
          "name": "owner",
          "type": "address"
        }
      ],
      "name": "balanceOf",
      "outputs": [
        {
          "internalType": "uint256",
          "name": "",
          "type": "uint256"
        }
      ],
      "stateMutability": "view",
      "type": "function"
    },
    {
      "inputs": [
        {
          "internalType": "uint256",
          "name": "tokenId",
          "type": "uint256"
        }
      ],
      "name": "burn",
      "outputs": [],
      "stateMutability": "nonpayable",
      "type": "function"
    },
    {
      "inputs": [
        {
          "internalType": "uint256",
          "name": "tokenId",
          "type": "uint256"
        }
      ],
      "name": "getApproved",
      "outputs": [
        {
          "internalType": "address",
          "name": "",
          "type": "address"
        }
      ],
      "stateMutability": "view",
      "type": "function"
    },
    {
      "inputs": [
        {
          "internalType": "address",
          "name": "account",
          "type": "address"
        }
      ],
      "name": "hasKYC",
      "outputs": [
        {
          "internalType": "bool",
          "name": "",
          "type": "bool"
        }
      ],
      "stateMutability": "view",
      "type": "function"
    },
    {
      "inputs": [
        {
          "internalType": "address",
          "name": "owner",
          "type": "address"
        },
        {
          "internalType": "address",
          "name": "operator",
          "type": "address"
        }
      ],
      "name": "isApprovedForAll",
      "outputs": [
        {
          "internalType": "bool",
          "name": "",
          "type": "bool"
        }
      ],
      "stateMutability": "view",
      "type": "function"
    },
    {
      "inputs": [],
      "name": "name",
      "outputs": [
        {
          "internalType": "string",
          "name": "",
          "type": "string"
        }
      ],
      "stateMutability": "view",
      "type": "function"
    },
    {
      "inputs": [],
      "name": "owner",
      "outputs": [
        {
          "internalType": "address",
          "name": "",
          "type": "address"
        }
      ],
      "stateMutability": "view",
      "type": "function"
    },
    {
      "inputs": [
        {
          "internalType": "uint256",
          "name": "tokenId",
          "type": "uint256"
        }
      ],
      "name": "ownerOf",
      "outputs": [
        {
          "internalType": "address",
          "name": "",
          "type": "address"
        }
      ],
      "stateMutability": "view",
      "type": "function"
    },
    {
      "inputs": [],
      "name": "renounceOwnership",
      "outputs": [],
      "stateMutability": "nonpayable",
      "type": "function"
    },
    {
      "inputs": [
        {
          "internalType": "address",
          "name": "to",
          "type": "address"
        },
        {
          "internalType": "string",
          "name": "uri",
          "type": "string"
        }
      ],
      "name": "safeMint",
      "outputs": [],
      "stateMutability": "nonpayable",
      "type": "function"
    },
    {
      "inputs": [
        {
          "internalType": "address",
          "name": "from",
          "type": "address"
        },
        {
          "internalType": "address",
          "name": "to",
          "type": "address"
        },
        {
          "internalType": "uint256",
          "name": "tokenId",
          "type": "uint256"
        }
      ],
      "name": "safeTransferFrom",
      "outputs": [],
      "stateMutability": "nonpayable",
      "type": "function"
    },
    {
      "inputs": [
        {
          "internalType": "address",
          "name": "from",
          "type": "address"
        },
        {
          "internalType": "address",
          "name": "to",
          "type": "address"
        },
        {
          "internalType": "uint256",
          "name": "tokenId",
          "type": "uint256"
        },
        {
          "internalType": "bytes",
          "name": "data",
          "type": "bytes"
        }
      ],
      "name": "safeTransferFrom",
      "outputs": [],
      "stateMutability": "nonpayable",
      "type": "function"
    },
    {
      "inputs": [
        {
          "internalType": "address",
          "name": "operator",
          "type": "address"
        },
        {
          "internalType": "bool",
          "name": "approved",
          "type": "bool"
        }
      ],
      "name": "setApprovalForAll",
      "outputs": [],
      "stateMutability": "nonpayable",
      "type": "function"
    },
    {
      "inputs": [
        {
          "internalType": "bytes4",
          "name": "interfaceId",
          "type": "bytes4"
        }
      ],
      "name": "supportsInterface",
      "outputs": [
        {
          "internalType": "bool",
          "name": "",
          "type": "bool"
        }
      ],
      "stateMutability": "view",
      "type": "function"
    },
    {
      "inputs": [],
      "name": "symbol",
      "outputs": [
        {
          "internalType": "string",
          "name": "",
          "type": "string"
        }
      ],
      "stateMutability": "view",
      "type": "function"
    },
    {
      "inputs": [
        {
          "internalType": "uint256",
          "name": "tokenId",
          "type": "uint256"
        }
      ],
      "name": "tokenURI",
      "outputs": [
        {
          "internalType": "string",
          "name": "",
          "type": "string"
        }
      ],
      "stateMutability": "view",
      "type": "function"
    },
    {
      "inputs": [
        {
          "internalType": "address",
          "name": "from",
          "type": "address"
        },
        {
          "internalType": "address",
          "name": "to",
          "type": "address"
        },
        {
          "internalType": "uint256",
          "name": "tokenId",
          "type": "uint256"
        }
      ],
      "name": "transferFrom",
      "outputs": [],
      "stateMutability": "nonpayable",
      "type": "function"
    },
    {
      "inputs": [
        {
          "internalType": "address",
          "name": "newOwner",
          "type": "address"
        }
      ],
      "name": "transferOwnership",
      "outputs": [],
      "stateMutability": "nonpayable",
      "type": "function"
    }
  ],
  "bytecode": "0x608060405260006009553480156200001657600080fd5b506040518060400160405280601381526020017f4b594320536f756c626f756e6420546f6b656e000000000000000000000000008152506040518060400160405280600681526020017f4b59435342540000000000000000000000000000000000000000000000000000815250816000908162000094919062000417565b508060019081620000a6919062000417565b505050620000c9620000bd620000cf60201b60201c565b620000d760201b60201c565b620004fe565b600033905090565b6000600760009054906101000a900473ffffffffffffffffffffffffffffffffffffffff16905081600760006101000a81548173ffffffffffffffffffffffffffffffffffffffff021916908373ffffffffffffffffffffffffffffffffffffffff1602179055508173ffffffffffffffffffffffffffffffffffffffff168173ffffffffffffffffffffffffffffffffffffffff167f8be0079c531659141344cd1fd0a4f28419497f9722a3daafe3b4186f6b6457e060405160405180910390a35050565b600081519050919050565b7f4e487b7100000000000000000000000000000000000000000000000000000000600052604160045260246000fd5b7f4e487b7100000000000000000000000000000000000000000000000000000000600052602260045260246000fd5b600060028204905060018216806200021f57607f821691505b602082108103620002355762000234620001d7565b5b50919050565b60008190508160005260206000209050919050565b60006020601f8301049050919050565b600082821b905092915050565b6000600883026200029f7fffffffffffffffffffffffffffffffffffffffffffffffffffffffffffffffff8262000260565b620002ab868362000260565b95508019841693508086168417925050509392505050565b6000819050919050565b6000819050919050565b6000620002f8620002f2620002ec84620002c3565b620002cd565b620002c3565b9050919050565b6000819050919050565b6200031483620002d7565b6200032c6200032382620002ff565b8484546200026d565b825550505050565b600090565b6200034362000334565b6200035081848462000309565b505050565b5b8181101562000378576200036c60008262000339565b60018101905062000356565b5050565b601f821115620003c75762000391816200023b565b6200039c8462000250565b81016020851015620003ac578190505b620003c4620003bb8562000250565b83018262000355565b50505b505050565b600082821c905092915050565b6000620003ec60001984600802620003cc565b1980831691505092915050565b6000620004078383620003d9565b9150826002028217905092915050565b62000422826200019d565b67ffffffffffffffff8111156200043e576200043d620001a8565b5b6200044a825462000206565b620004578282856200037c565b600060209050601f8311600181146200048f57600084156200047a578287015190505b620004868582620003f9565b865550620004f6565b601f1984166200049f866200023b565b60005b82811015620004c957848901518255600182019150602085019450602081019050620004a2565b86831015620004e95784890151620004e5601f891682620003d9565b8355505b6001600288020188555050505b505050505050565b6132de806200050e6000396000f3fe608060405234801561001057600080fd5b50600436106101215760003560e01c806370a08231116100ad578063b88d4fde11610071578063b88d4fde14610306578063c87b56dd14610322578063d204c45e14610352578063e985e9c51461036e578063f2fde38b1461039e57610121565b806370a0823114610274578063715018a6146102a45780638da5cb5b146102ae57806395d89b41146102cc578063a22cb465146102ea57610121565b806323b872dd116100f457806323b872dd146101c057806342842e0e146101dc57806342966c68146101f85780635249e862146102145780636352211e1461024457610121565b806301ffc9a71461012657806306fdde0314610156578063081812fc14610174578063095ea7b3146101a4575b600080fd5b610140600480360381019061013b9190611fec565b6103ba565b60405161014d9190612034565b60405180910390f35b61015e6103cc565b60405161016b91906120df565b60405180910390f35b61018e60048036038101906101899190612137565b61045e565b60405161019b91906121a5565b60405180910390f35b6101be60048036038101906101b991906121ec565b6104a4565b005b6101da60048036038101906101d5919061222c565b6105bb565b005b6101f660048036038101906101f1919061222c565b61061b565b005b610212600480360381019061020d9190612137565b61063b565b005b61022e6004803603810190610229919061227f565b61064f565b60405161023b9190612034565b60405180910390f35b61025e60048036038101906102599190612137565b610663565b60405161026b91906121a5565b60405180910390f35b61028e6004803603810190610289919061227f565b6106e9565b60405161029b91906122bb565b60405180910390f35b6102ac6107a0565b005b6102b66107b4565b6040516102c391906121a5565b60405180910390f35b6102d46107de565b6040516102e191906120df565b60405180910390f35b61030460048036038101906102ff9190612302565b610870565b005b610320600480360381019061031b9190612477565b610886565b005b61033c60048036038101906103379190612137565b6108e8565b60405161034991906120df565b60405180910390f35b61036c6004803603810190610367919061259b565b6108fa565b005b610388600480360381019061038391906125f7565b610934565b6040516103959190612034565b60405180910390f35b6103b860048036038101906103b3919061227f565b6109c8565b005b60006103c582610a4b565b9050919050565b6060600080546103db90612666565b80601f016020809104026020016040519081016040528092919081815260200182805461040790612666565b80156104545780601f1061042957610100808354040283529160200191610454565b820191906000526020600020905b81548152906001019060200180831161043757829003601f168201915b5050505050905090565b600061046982610aac565b6004600083815260200190815260200160002060009054906101000a900473ffffffffffffffffffffffffffffffffffffffff169050919050565b60006104af82610663565b90508073ffffffffffffffffffffffffffffffffffffffff168373ffffffffffffffffffffffffffffffffffffffff160361051f576040517f08c379a000000000000000000000000000000000000000000000000000000000815260040161051690612709565b60405180910390fd5b8073ffffffffffffffffffffffffffffffffffffffff1661053e610af7565b73ffffffffffffffffffffffffffffffffffffffff16148061056d575061056c81610567610af7565b610934565b5b6105ac576040517f08c379a00000000000000000000000000000000000000000000000000000000081526004016105a39061279b565b60405180910390fd5b6105b68383610aff565b505050565b6105cc6105c6610af7565b82610bb8565b61060b576040517f08c379a00000000000000000000000000000000000000000000000000000000081526004016106029061282d565b60405180910390fd5b610616838383610c4d565b505050565b61063683838360405180602001604052806000815250610886565b505050565b610643610f46565b61064c81610fc4565b50565b60008061065b836106e9565b119050919050565b60008061066f83610fd0565b9050600073ffffffffffffffffffffffffffffffffffffffff168173ffffffffffffffffffffffffffffffffffffffff16036106e0576040517f08c379a00000000000000000000000000000000000000000000000000000000081526004016106d790612899565b60405180910390fd5b80915050919050565b60008073ffffffffffffffffffffffffffffffffffffffff168273ffffffffffffffffffffffffffffffffffffffff1603610759576040517f08c379a00000000000000000000000000000000000000000000000000000000081526004016107509061292b565b60405180910390fd5b600360008373ffffffffffffffffffffffffffffffffffffffff1673ffffffffffffffffffffffffffffffffffffffff168152602001908152602001600020549050919050565b6107a8610f46565b6107b2600061100d565b565b6000600760009054906101000a900473ffffffffffffffffffffffffffffffffffffffff16905090565b6060600180546107ed90612666565b80601f016020809104026020016040519081016040528092919081815260200182805461081990612666565b80156108665780601f1061083b57610100808354040283529160200191610866565b820191906000526020600020905b81548152906001019060200180831161084957829003601f168201915b5050505050905090565b61088261087b610af7565b83836110d3565b5050565b610897610891610af7565b83610bb8565b6108d6576040517f08c379a00000000000000000000000000000000000000000000000000000000081526004016108cd9061282d565b60405180910390fd5b6108e28484848461123f565b50505050565b60606108f38261129b565b9050919050565b610902610f46565b60006009600081546109139061297a565b919050819055905061092583826113ad565b61092f81836113cb565b505050565b6000600560008473ffffffffffffffffffffffffffffffffffffffff1673ffffffffffffffffffffffffffffffffffffffff16815260200190815260200160002060008373ffffffffffffffffffffffffffffffffffffffff1673ffffffffffffffffffffffffffffffffffffffff16815260200190815260200160002060009054906101000a900460ff16905092915050565b6109d0610f46565b600073ffffffffffffffffffffffffffffffffffffffff168173ffffffffffffffffffffffffffffffffffffffff1603610a3f576040517f08c379a0000000000000000000000000000000000000000000000000000000008152600401610a3690612a34565b60405180910390fd5b610a488161100d565b50565b6000634906490660e01b7bffffffffffffffffffffffffffffffffffffffffffffffffffffffff1916827bffffffffffffffffffffffffffffffffffffffffffffffffffffffff19161480610aa55750610aa48261146f565b5b9050919050565b610ab581611551565b610af4576040517f08c379a0000000000000000000000000000000000000000000000000000000008152600401610aeb90612899565b60405180910390fd5b50565b600033905090565b816004600083815260200190815260200160002060006101000a81548173ffffffffffffffffffffffffffffffffffffffff021916908373ffffffffffffffffffffffffffffffffffffffff160217905550808273ffffffffffffffffffffffffffffffffffffffff16610b7283610663565b73ffffffffffffffffffffffffffffffffffffffff167f8c5be1e5ebec7d5bd14f71427d1e84f3dd0314c0f7b2291e5b200ac8c7c3b92560405160405180910390a45050565b600080610bc483610663565b90508073ffffffffffffffffffffffffffffffffffffffff168473ffffffffffffffffffffffffffffffffffffffff161480610c065750610c058185610934565b5b80610c4457508373ffffffffffffffffffffffffffffffffffffffff16610c2c8461045e565b73ffffffffffffffffffffffffffffffffffffffff16145b91505092915050565b8273ffffffffffffffffffffffffffffffffffffffff16610c6d82610663565b73ffffffffffffffffffffffffffffffffffffffff1614610cc3576040517f08c379a0000000000000000000000000000000000000000000000000000000008152600401610cba90612ac6565b60405180910390fd5b600073ffffffffffffffffffffffffffffffffffffffff168273ffffffffffffffffffffffffffffffffffffffff1603610d32576040517f08c379a0000000000000000000000000000000000000000000000000000000008152600401610d2990612b58565b60405180910390fd5b610d3f8383836001611592565b8273ffffffffffffffffffffffffffffffffffffffff16610d5f82610663565b73ffffffffffffffffffffffffffffffffffffffff1614610db5576040517f08c379a0000000000000000000000000000000000000000000000000000000008152600401610dac90612ac6565b60405180910390fd5b6004600082815260200190815260200160002060006101000a81549073ffffffffffffffffffffffffffffffffffffffff02191690556001600360008573ffffffffffffffffffffffffffffffffffffffff1673ffffffffffffffffffffffffffffffffffffffff168152602001908152602001600020600082825403925050819055506001600360008473ffffffffffffffffffffffffffffffffffffffff1673ffffffffffffffffffffffffffffffffffffffff16815260200190815260200160002060008282540192505081905550816002600083815260200190815260200160002060006101000a81548173ffffffffffffffffffffffffffffffffffffffff021916908373ffffffffffffffffffffffffffffffffffffffff160217905550808273ffffffffffffffffffffffffffffffffffffffff168473ffffffffffffffffffffffffffffffffffffffff167fddf252ad1be2c89b69c2b068fc378daa952ba7f163c4a11628f55a4df523b3ef60405160405180910390a4610f41838383600161164a565b505050565b610f4e610af7565b73ffffffffffffffffffffffffffffffffffffffff16610f6c6107b4565b73ffffffffffffffffffffffffffffffffffffffff1614610fc2576040517f08c379a0000000000000000000000000000000000000000000000000000000008152600401610fb990612bc4565b60405180910390fd5b565b610fcd81611650565b50565b60006002600083815260200190815260200160002060009054906101000a900473ffffffffffffffffffffffffffffffffffffffff169050919050565b6000600760009054906101000a900473ffffffffffffffffffffffffffffffffffffffff16905081600760006101000a81548173ffffffffffffffffffffffffffffffffffffffff021916908373ffffffffffffffffffffffffffffffffffffffff1602179055508173ffffffffffffffffffffffffffffffffffffffff168173ffffffffffffffffffffffffffffffffffffffff167f8be0079c531659141344cd1fd0a4f28419497f9722a3daafe3b4186f6b6457e060405160405180910390a35050565b8173ffffffffffffffffffffffffffffffffffffffff168373ffffffffffffffffffffffffffffffffffffffff1603611141576040517f08c379a000000000000000000000000000000000000000000000000000000000815260040161113890612c30565b60405180910390fd5b80600560008573ffffffffffffffffffffffffffffffffffffffff1673ffffffffffffffffffffffffffffffffffffffff16815260200190815260200160002060008473ffffffffffffffffffffffffffffffffffffffff1673ffffffffffffffffffffffffffffffffffffffff16815260200190815260200160002060006101000a81548160ff0219169083151502179055508173ffffffffffffffffffffffffffffffffffffffff168373ffffffffffffffffffffffffffffffffffffffff167f17307eab39ab6107e8899845ad3d59bd9653f200f220920489ca2b5937696c31836040516112329190612034565b60405180910390a3505050565b61124a848484610c4d565b611256848484846116a3565b611295576040517f08c379a000000000000000000000000000000000000000000000000000000000815260040161128c90612cc2565b60405180910390fd5b50505050565b60606112a682610aac565b60006006600084815260200190815260200160002080546112c690612666565b80601f01602080910402602001604051908101604052809291908181526020018280546112f290612666565b801561133f5780601f106113145761010080835404028352916020019161133f565b820191906000526020600020905b81548152906001019060200180831161132257829003601f168201915b50505050509050600061135061182a565b905060008151036113655781925050506113a8565b60008251111561139a578082604051602001611382929190612d1e565b604051602081830303815290604052925050506113a8565b6113a384611841565b925050505b919050565b6113c78282604051806020016040528060008152506118a9565b5050565b6113d482611551565b611413576040517f08c379a000000000000000000000000000000000000000000000000000000000815260040161140a90612db4565b60405180910390fd5b806006600084815260200190815260200160002090816114339190612f80565b507ff8e1a15aba9398e019f0b49df1a4fde98ee17ae345cb5f6b5e2c27f5033e8ce78260405161146391906122bb565b60405180910390a15050565b60007f80ac58cd000000000000000000000000000000000000000000000000000000007bffffffffffffffffffffffffffffffffffffffffffffffffffffffff1916827bffffffffffffffffffffffffffffffffffffffffffffffffffffffff1916148061153a57507f5b5e139f000000000000000000000000000000000000000000000000000000007bffffffffffffffffffffffffffffffffffffffffffffffffffffffff1916827bffffffffffffffffffffffffffffffffffffffffffffffffffffffff1916145b8061154a575061154982611904565b5b9050919050565b60008073ffffffffffffffffffffffffffffffffffffffff1661157383610fd0565b73ffffffffffffffffffffffffffffffffffffffff1614159050919050565b600073ffffffffffffffffffffffffffffffffffffffff168473ffffffffffffffffffffffffffffffffffffffff1614806115f95750600073ffffffffffffffffffffffffffffffffffffffff168373ffffffffffffffffffffffffffffffffffffffff16145b611638576040517f08c379a000000000000000000000000000000000000000000000000000000000815260040161162f9061309e565b60405180910390fd5b6116448484848461196e565b50505050565b50505050565b61165981611974565b600060066000838152602001908152602001600020805461167990612666565b9050146116a05760066000828152602001908152602001600020600061169f9190611f23565b5b50565b60006116c48473ffffffffffffffffffffffffffffffffffffffff16611ac2565b1561181d578373ffffffffffffffffffffffffffffffffffffffff1663150b7a026116ed610af7565b8786866040518563ffffffff1660e01b815260040161170f9493929190613113565b6020604051808303816000875af192505050801561174b57506040513d601f19601f820116820180604052508101906117489190613174565b60015b6117cd573d806000811461177b576040519150601f19603f3d011682016040523d82523d6000602084013e611780565b606091505b5060008151036117c5576040517f08c379a00000000000000000000000000000000000000000000000000000000081526004016117bc90612cc2565b60405180910390fd5b805181602001fd5b63150b7a0260e01b7bffffffffffffffffffffffffffffffffffffffffffffffffffffffff1916817bffffffffffffffffffffffffffffffffffffffffffffffffffffffff191614915050611822565b600190505b949350505050565b606060405180602001604052806000815250905090565b606061184c82610aac565b600061185661182a565b9050600081511161187657604051806020016040528060008152506118a1565b8061188084611ae5565b604051602001611891929190612d1e565b6040516020818303038152906040525b915050919050565b6118b38383611bb3565b6118c060008484846116a3565b6118ff576040517f08c379a00000000000000000000000000000000000000000000000000000000081526004016118f690612cc2565b60405180910390fd5b505050565b60007f01ffc9a7000000000000000000000000000000000000000000000000000000007bffffffffffffffffffffffffffffffffffffffffffffffffffffffff1916827bffffffffffffffffffffffffffffffffffffffffffffffffffffffff1916149050919050565b50505050565b600061197f82610663565b905061198f816000846001611592565b61199882610663565b90506004600083815260200190815260200160002060006101000a81549073ffffffffffffffffffffffffffffffffffffffff02191690556001600360008373ffffffffffffffffffffffffffffffffffffffff1673ffffffffffffffffffffffffffffffffffffffff168152602001908152602001600020600082825403925050819055506002600083815260200190815260200160002060006101000a81549073ffffffffffffffffffffffffffffffffffffffff021916905581600073ffffffffffffffffffffffffffffffffffffffff168273ffffffffffffffffffffffffffffffffffffffff167fddf252ad1be2c89b69c2b068fc378daa952ba7f163c4a11628f55a4df523b3ef60405160405180910390a4611abe81600084600161164a565b5050565b6000808273ffffffffffffffffffffffffffffffffffffffff163b119050919050565b606060006001611af484611dd0565b01905060008167ffffffffffffffff811115611b1357611b1261234c565b5b6040519080825280601f01601f191660200182016040528015611b455781602001600182028036833780820191505090505b509050600082602001820190505b600115611ba8578080600190039150507f3031323334353637383961626364656600000000000000000000000000000000600a86061a8153600a8581611b9c57611b9b6131a1565b5b04945060008503611b53575b819350505050919050565b600073ffffffffffffffffffffffffffffffffffffffff168273ffffffffffffffffffffffffffffffffffffffff1603611c22576040517f08c379a0000000000000000000000000000000000000000000000000000000008152600401611c199061321c565b60405180910390fd5b611c2b81611551565b15611c6b576040517f08c379a0000000000000000000000000000000000000000000000000000000008152600401611c6290613288565b60405180910390fd5b611c79600083836001611592565b611c8281611551565b15611cc2576040517f08c379a0000000000000000000000000000000000000000000000000000000008152600401611cb990613288565b60405180910390fd5b6001600360008473ffffffffffffffffffffffffffffffffffffffff1673ffffffffffffffffffffffffffffffffffffffff16815260200190815260200160002060008282540192505081905550816002600083815260200190815260200160002060006101000a81548173ffffffffffffffffffffffffffffffffffffffff021916908373ffffffffffffffffffffffffffffffffffffffff160217905550808273ffffffffffffffffffffffffffffffffffffffff16600073ffffffffffffffffffffffffffffffffffffffff167fddf252ad1be2c89b69c2b068fc378daa952ba7f163c4a11628f55a4df523b3ef60405160405180910390a4611dcc60008383600161164a565b5050565b600080600090507a184f03e93ff9f4daa797ed6e38ed64bf6a1f0100000000000000008310611e2e577a184f03e93ff9f4daa797ed6e38ed64bf6a1f0100000000000000008381611e2457611e236131a1565b5b0492506040810190505b6d04ee2d6d415b85acef81000000008310611e6b576d04ee2d6d415b85acef81000000008381611e6157611e606131a1565b5b0492506020810190505b662386f26fc100008310611e9a57662386f26fc100008381611e9057611e8f6131a1565b5b0492506010810190505b6305f5e1008310611ec3576305f5e1008381611eb957611eb86131a1565b5b0492506008810190505b6127108310611ee8576127108381611ede57611edd6131a1565b5b0492506004810190505b60648310611f0b5760648381611f0157611f006131a1565b5b0492506002810190505b600a8310611f1a576001810190505b80915050919050565b508054611f2f90612666565b6000825580601f10611f415750611f60565b601f016020900490600052602060002090810190611f5f9190611f63565b5b50565b5b80821115611f7c576000816000905550600101611f64565b5090565b6000604051905090565b600080fd5b600080fd5b60007fffffffff0000000000000000000000000000000000000000000000000000000082169050919050565b611fc981611f94565b8114611fd457600080fd5b50565b600081359050611fe681611fc0565b92915050565b60006020828403121561200257612001611f8a565b5b600061201084828501611fd7565b91505092915050565b60008115159050919050565b61202e81612019565b82525050565b60006020820190506120496000830184612025565b92915050565b600081519050919050565b600082825260208201905092915050565b60005b8381101561208957808201518184015260208101905061206e565b60008484015250505050565b6000601f19601f8301169050919050565b60006120b18261204f565b6120bb818561205a565b93506120cb81856020860161206b565b6120d481612095565b840191505092915050565b600060208201905081810360008301526120f981846120a6565b905092915050565b6000819050919050565b61211481612101565b811461211f57600080fd5b50565b6000813590506121318161210b565b92915050565b60006020828403121561214d5761214c611f8a565b5b600061215b84828501612122565b91505092915050565b600073ffffffffffffffffffffffffffffffffffffffff82169050919050565b600061218f82612164565b9050919050565b61219f81612184565b82525050565b60006020820190506121ba6000830184612196565b92915050565b6121c981612184565b81146121d457600080fd5b50565b6000813590506121e6816121c0565b92915050565b6000806040838503121561220357612202611f8a565b5b6000612211858286016121d7565b925050602061222285828601612122565b9150509250929050565b60008060006060848603121561224557612244611f8a565b5b6000612253868287016121d7565b9350506020612264868287016121d7565b925050604061227586828701612122565b9150509250925092565b60006020828403121561229557612294611f8a565b5b60006122a3848285016121d7565b91505092915050565b6122b581612101565b82525050565b60006020820190506122d060008301846122ac565b92915050565b6122df81612019565b81146122ea57600080fd5b50565b6000813590506122fc816122d6565b92915050565b6000806040838503121561231957612318611f8a565b5b6000612327858286016121d7565b9250506020612338858286016122ed565b9150509250929050565b600080fd5b600080fd5b7f4e487b7100000000000000000000000000000000000000000000000000000000600052604160045260246000fd5b61238482612095565b810181811067ffffffffffffffff821117156123a3576123a261234c565b5b80604052505050565b60006123b6611f80565b90506123c2828261237b565b919050565b600067ffffffffffffffff8211156123e2576123e161234c565b5b6123eb82612095565b9050602081019050919050565b82818337600083830152505050565b600061241a612415846123c7565b6123ac565b90508281526020810184848401111561243657612435612347565b5b6124418482856123f8565b509392505050565b600082601f83011261245e5761245d612342565b5b813561246e848260208601612407565b91505092915050565b6000806000806080858703121561249157612490611f8a565b5b600061249f878288016121d7565b94505060206124b0878288016121d7565b93505060406124c187828801612122565b925050606085013567ffffffffffffffff8111156124e2576124e1611f8f565b5b6124ee87828801612449565b91505092959194509250565b600067ffffffffffffffff8211156125155761251461234c565b5b61251e82612095565b9050602081019050919050565b600061253e612539846124fa565b6123ac565b90508281526020810184848401111561255a57612559612347565b5b6125658482856123f8565b509392505050565b600082601f83011261258257612581612342565b5b813561259284826020860161252b565b91505092915050565b600080604083850312156125b2576125b1611f8a565b5b60006125c0858286016121d7565b925050602083013567ffffffffffffffff8111156125e1576125e0611f8f565b5b6125ed8582860161256d565b9150509250929050565b6000806040838503121561260e5761260d611f8a565b5b600061261c858286016121d7565b925050602061262d858286016121d7565b9150509250929050565b7f4e487b7100000000000000000000000000000000000000000000000000000000600052602260045260246000fd5b6000600282049050600182168061267e57607f821691505b60208210810361269157612690612637565b5b50919050565b7f4552433732313a20617070726f76616c20746f2063757272656e74206f776e6560008201527f7200000000000000000000000000000000000000000000000000000000000000602082015250565b60006126f360218361205a565b91506126fe82612697565b604082019050919050565b60006020820190508181036000830152612722816126e6565b9050919050565b7f4552433732313a20617070726f76652063616c6c6572206973206e6f7420746f60008201527f6b656e206f776e6572206f7220617070726f76656420666f7220616c6c000000602082015250565b6000612785603d8361205a565b915061279082612729565b604082019050919050565b600060208201905081810360008301526127b481612778565b9050919050565b7f4552433732313a2063616c6c6572206973206e6f7420746f6b656e206f776e6560008201527f72206f7220617070726f76656400000000000000000000000000000000000000602082015250565b6000612817602d8361205a565b9150612822826127bb565b604082019050919050565b600060208201905081810360008301526128468161280a565b9050919050565b7f4552433732313a20696e76616c696420746f6b656e2049440000000000000000600082015250565b600061288360188361205a565b915061288e8261284d565b602082019050919050565b600060208201905081810360008301526128b281612876565b9050919050565b7f4552433732313a2061646472657373207a65726f206973206e6f74206120766160008201527f6c6964206f776e65720000000000000000000000000000000000000000000000602082015250565b600061291560298361205a565b9150612920826128b9565b604082019050919050565b6000602082019050818103600083015261294481612908565b9050919050565b7f4e487b7100000000000000000000000000000000000000000000000000000000600052601160045260246000fd5b600061298582612101565b91507fffffffffffffffffffffffffffffffffffffffffffffffffffffffffffffffff82036129b7576129b661294b565b5b600182019050919050565b7f4f776e61626c653a206e6577206f776e657220697320746865207a65726f206160008201527f6464726573730000000000000000000000000000000000000000000000000000602082015250565b6000612a1e60268361205a565b9150612a29826129c2565b604082019050919050565b60006020820190508181036000830152612a4d81612a11565b9050919050565b7f4552433732313a207472616e736665722066726f6d20696e636f72726563742060008201527f6f776e6572000000000000000000000000000000000000000000000000000000602082015250565b6000612ab060258361205a565b9150612abb82612a54565b604082019050919050565b60006020820190508181036000830152612adf81612aa3565b9050919050565b7f4552433732313a207472616e7366657220746f20746865207a65726f2061646460008201527f7265737300000000000000000000000000000000000000000000000000000000602082015250565b6000612b4260248361205a565b9150612b4d82612ae6565b604082019050919050565b60006020820190508181036000830152612b7181612b35565b9050919050565b7f4f776e61626c653a2063616c6c6572206973206e6f7420746865206f776e6572600082015250565b6000612bae60208361205a565b9150612bb982612b78565b602082019050919050565b60006020820190508181036000830152612bdd81612ba1565b9050919050565b7f4552433732313a20617070726f766520746f2063616c6c657200000000000000600082015250565b6000612c1a60198361205a565b9150612c2582612be4565b602082019050919050565b60006020820190508181036000830152612c4981612c0d565b9050919050565b7f4552433732313a207472616e7366657220746f206e6f6e20455243373231526560008201527f63656976657220696d706c656d656e7465720000000000000000000000000000602082015250565b6000612cac60328361205a565b9150612cb782612c50565b604082019050919050565b60006020820190508181036000830152612cdb81612c9f565b9050919050565b600081905092915050565b6000612cf88261204f565b612d028185612ce2565b9350612d1281856020860161206b565b80840191505092915050565b6000612d2a8285612ced565b9150612d368284612ced565b91508190509392505050565b7f45524337323155524953746f726167653a2055524920736574206f66206e6f6e60008201527f6578697374656e7420746f6b656e000000000000000000000000000000000000602082015250565b6000612d9e602e8361205a565b9150612da982612d42565b604082019050919050565b60006020820190508181036000830152612dcd81612d91565b9050919050565b60008190508160005260206000209050919050565b60006020601f8301049050919050565b600082821b905092915050565b600060088302612e367fffffffffffffffffffffffffffffffffffffffffffffffffffffffffffffffff82612df9565b612e408683612df9565b95508019841693508086168417925050509392505050565b6000819050919050565b6000612e7d612e78612e7384612101565b612e58565b612101565b9050919050565b6000819050919050565b612e9783612e62565b612eab612ea382612e84565b848454612e06565b825550505050565b600090565b612ec0612eb3565b612ecb818484612e8e565b505050565b5b81811015612eef57612ee4600082612eb8565b600181019050612ed1565b5050565b601f821115612f3457612f0581612dd4565b612f0e84612de9565b81016020851015612f1d578190505b612f31612f2985612de9565b830182612ed0565b50505b505050565b600082821c905092915050565b6000612f5760001984600802612f39565b1980831691505092915050565b6000612f708383612f46565b9150826002028217905092915050565b612f898261204f565b67ffffffffffffffff811115612fa257612fa161234c565b5b612fac8254612666565b612fb7828285612ef3565b600060209050601f831160018114612fea5760008415612fd8578287015190505b612fe28582612f64565b86555061304a565b601f198416612ff886612dd4565b60005b8281101561302057848901518255600182019150602085019450602081019050612ffb565b8683101561303d5784890151613039601f891682612f46565b8355505b6001600288020188555050505b505050505050565b7f536f756c626f756e643a206e6f6e2d7472616e7366657261626c650000000000600082015250565b6000613088601b8361205a565b915061309382613052565b602082019050919050565b600060208201905081810360008301526130b78161307b565b9050919050565b600081519050919050565b600082825260208201905092915050565b60006130e5826130be565b6130ef81856130c9565b93506130ff81856020860161206b565b61310881612095565b840191505092915050565b60006080820190506131286000830187612196565b6131356020830186612196565b61314260408301856122ac565b818103606083015261315481846130da565b905095945050505050565b60008151905061316e81611fc0565b92915050565b60006020828403121561318a57613189611f8a565b5b60006131988482850161315f565b91505092915050565b7f4e487b7100000000000000000000000000000000000000000000000000000000600052601260045260246000fd5b7f4552433732313a206d696e7420746f20746865207a65726f2061646472657373600082015250565b600061320660208361205a565b9150613211826131d0565b602082019050919050565b60006020820190508181036000830152613235816131f9565b9050919050565b7f4552433732313a20746f6b656e20616c7265616479206d696e74656400000000600082015250565b6000613272601c8361205a565b915061327d8261323c565b602082019050919050565b600060208201905081810360008301526132a181613265565b905091905056fea264697066735822122001302806b1243dffb6cc68ae8c6330e3ed29f2e00c5033da874193b8e0abe97364736f6c63430008140033",
  "linkReferences": {},
  "deployedLinkReferences": {}
}